{
  "contractName": "PostFactory",
  "abi": [
    {
      "anonymous": false,
      "inputs": [
        {
          "indexed": true,
          "internalType": "address",
          "name": "userAdd",
          "type": "address"
        },
        {
          "indexed": false,
          "internalType": "string",
          "name": "text",
          "type": "string"
        },
        {
          "indexed": false,
          "internalType": "uint256",
          "name": "idPost",
          "type": "uint256"
        }
      ],
      "name": "Posted",
      "type": "event"
    },
    {
      "anonymous": false,
      "inputs": [
        {
          "components": [
            {
              "internalType": "string",
              "name": "text",
              "type": "string"
            },
            {
              "internalType": "address payable",
              "name": "author",
              "type": "address"
            },
            {
              "internalType": "enum PostFactory.State",
              "name": "state",
              "type": "uint8"
            },
            {
              "internalType": "uint256",
              "name": "nblike",
              "type": "uint256"
            },
            {
              "internalType": "address[]",
              "name": "like",
              "type": "address[]"
            },
            {
              "internalType": "uint256",
              "name": "id",
              "type": "uint256"
            }
          ],
          "indexed": false,
          "internalType": "struct PostFactory.Reponse",
          "name": "rep",
          "type": "tuple"
        }
      ],
      "name": "answerPosted",
      "type": "event"
    },
    {
      "anonymous": false,
      "inputs": [
        {
          "indexed": false,
          "internalType": "uint256[]",
          "name": "allpostsID",
          "type": "uint256[]"
        }
      ],
      "name": "getAllpostsEvent",
      "type": "event"
    },
    {
      "anonymous": false,
      "inputs": [
        {
          "components": [
            {
              "internalType": "string",
              "name": "text",
              "type": "string"
            },
            {
              "internalType": "address payable",
              "name": "author",
              "type": "address"
            },
            {
              "internalType": "enum PostFactory.State",
              "name": "state",
              "type": "uint8"
            },
            {
              "internalType": "uint256",
              "name": "nblike",
              "type": "uint256"
            },
            {
              "internalType": "address[]",
              "name": "like",
              "type": "address[]"
            },
            {
              "internalType": "uint256",
              "name": "id",
              "type": "uint256"
            }
          ],
          "indexed": false,
          "internalType": "struct PostFactory.Reponse[]",
          "name": "reponse",
          "type": "tuple[]"
        }
      ],
      "name": "getAllres",
      "type": "event"
    },
    {
      "anonymous": false,
      "inputs": [
        {
          "indexed": false,
          "internalType": "uint256",
          "name": "idpost",
          "type": "uint256"
        },
        {
          "indexed": false,
          "internalType": "uint256",
          "name": "idAnswer",
          "type": "uint256"
        }
      ],
      "name": "likeAnswerEvent",
      "type": "event"
    },
    {
      "anonymous": false,
      "inputs": [
        {
          "indexed": true,
          "internalType": "address",
          "name": "_from",
          "type": "address"
        },
        {
          "indexed": true,
          "internalType": "uint256",
          "name": "_id",
          "type": "uint256"
        },
        {
          "indexed": false,
          "internalType": "address",
          "name": "_author",
          "type": "address"
        }
      ],
      "name": "validateAnswerEvent",
      "type": "event"
    },
    {
      "constant": false,
      "inputs": [
        {
          "internalType": "string",
          "name": "_text",
          "type": "string"
        }
      ],
      "name": "newPost",
      "outputs": [],
      "payable": false,
      "stateMutability": "nonpayable",
      "type": "function"
    },
    {
      "constant": true,
      "inputs": [
        {
          "internalType": "uint256",
          "name": "id",
          "type": "uint256"
        }
      ],
      "name": "getOwnerByPost",
      "outputs": [
        {
          "internalType": "address",
          "name": "",
          "type": "address"
        }
      ],
      "payable": false,
      "stateMutability": "view",
      "type": "function"
    },
    {
      "constant": true,
      "inputs": [
        {
          "internalType": "address",
          "name": "_owner",
          "type": "address"
        }
      ],
      "name": "getPostsByOwner",
      "outputs": [
        {
          "internalType": "uint256[]",
          "name": "",
          "type": "uint256[]"
        }
      ],
      "payable": false,
      "stateMutability": "view",
      "type": "function"
    },
    {
      "constant": false,
      "inputs": [],
      "name": "getAllPost",
      "outputs": [
        {
          "internalType": "uint256[]",
          "name": "",
          "type": "uint256[]"
        }
      ],
      "payable": false,
      "stateMutability": "nonpayable",
      "type": "function"
    },
    {
      "constant": false,
      "inputs": [
        {
          "internalType": "string",
          "name": "_text",
          "type": "string"
        },
        {
          "internalType": "uint256",
          "name": "_postid",
          "type": "uint256"
        }
      ],
      "name": "newAnswer",
      "outputs": [
        {
          "internalType": "bool",
          "name": "",
          "type": "bool"
        }
      ],
      "payable": false,
      "stateMutability": "nonpayable",
      "type": "function"
    },
    {
      "constant": false,
      "inputs": [
        {
          "internalType": "uint256",
          "name": "_post",
          "type": "uint256"
        }
      ],
      "name": "getAnswersByPost",
      "outputs": [
        {
          "components": [
            {
              "internalType": "string",
              "name": "text",
              "type": "string"
            },
            {
              "internalType": "address payable",
              "name": "author",
              "type": "address"
            },
            {
              "internalType": "enum PostFactory.State",
              "name": "state",
              "type": "uint8"
            },
            {
              "internalType": "uint256",
              "name": "nblike",
              "type": "uint256"
            },
            {
              "internalType": "address[]",
              "name": "like",
              "type": "address[]"
            },
            {
              "internalType": "uint256",
              "name": "id",
              "type": "uint256"
            }
          ],
          "internalType": "struct PostFactory.Reponse[]",
          "name": "",
          "type": "tuple[]"
        }
      ],
      "payable": false,
      "stateMutability": "nonpayable",
      "type": "function"
    },
    {
      "constant": false,
      "inputs": [
        {
          "internalType": "uint256",
          "name": "_post",
          "type": "uint256"
        },
        {
          "internalType": "uint256",
          "name": "_id",
          "type": "uint256"
        }
      ],
      "name": "likeAnswer",
      "outputs": [],
      "payable": false,
      "stateMutability": "nonpayable",
      "type": "function"
    },
    {
      "constant": false,
      "inputs": [
        {
          "internalType": "uint256",
          "name": "_post",
          "type": "uint256"
        },
        {
          "internalType": "uint256",
          "name": "_id",
          "type": "uint256"
        }
      ],
      "name": "validateAnswer",
      "outputs": [],
      "payable": false,
      "stateMutability": "nonpayable",
      "type": "function"
    }
  ],
  "bytecode": "0x608060405234801561001057600080fd5b506118ed806100206000396000f3fe608060405234801561001057600080fd5b50600436106100885760003560e01c8063a91e6d7d1161005b578063a91e6d7d14610111578063ad02e51b14610141578063bbb586e314610171578063da7d9d10146101a157610088565b806323bcaae91461008d5780632b2e998b146100a95780632ece5df1146100c55780639ad26e05146100e1575b600080fd5b6100a760048036036100a29190810190610e5b565b6101bf565b005b6100c360048036036100be9190810190610f19565b61033a565b005b6100df60048036036100da9190810190610f19565b610471565b005b6100fb60048036036100f69190810190610e9c565b610569565b6040516101089190611467565b60405180910390f35b61012b60048036036101269190810190610e32565b61076d565b6040516101389190611445565b60405180910390f35b61015b60048036036101569190810190610ef0565b61089a565b6040516101689190611423565b60405180910390f35b61018b60048036036101869190810190610ef0565b610b2f565b60405161019891906113ed565b60405180910390f35b6101a9610b6c565b6040516101b69190611445565b60405180910390f35b60008080549050905060006040518060600160405280848152602001838152602001600081525090806001815401808255809150509060018203906000526020600020906004020160009091929091909150600082015181600001908051906020019061022d929190610c42565b506020820151816001015560408201518160020155505050336002600083815260200190815260200160002060006101000a81548173ffffffffffffffffffffffffffffffffffffffff021916908373ffffffffffffffffffffffffffffffffffffffff160217905550600160003373ffffffffffffffffffffffffffffffffffffffff1673ffffffffffffffffffffffffffffffffffffffff168152602001908152602001600020600081548092919060010191905055503373ffffffffffffffffffffffffffffffffffffffff167fe496cbd014e4a7c5ba79bb31c56d6494e13a21c9fe6959dc3c0f2e95317ec52d838360405161032e929190611482565b60405180910390a25050565b336000838154811061034857fe5b906000526020600020906004020160030160008381526020019081526020016000206003016000848154811061037a57fe5b9060005260206000209060040201600301600084815260200190815260200160002060020154815481106103aa57fe5b9060005260206000200160006101000a81548173ffffffffffffffffffffffffffffffffffffffff021916908373ffffffffffffffffffffffffffffffffffffffff160217905550600082815481106103ff57fe5b90600052602060002090600402016003016000828152602001908152602001600020600201600081548092919060010191905055507f2147eae4ed7814ca1dbce594add4208bd970da02cce92a492f86e2d579837c5e82826040516104659291906114d4565b60405180910390a15050565b600080838154811061047f57fe5b9060005260206000209060040201600301600083815260200190815260200160002060010160146101000a81548160ff021916908360018111156104bf57fe5b0217905550803373ffffffffffffffffffffffffffffffffffffffff167fe068d44ff793d398acced9bebf8ccca9f439c833ba7c2af9c076b494789332466000858154811061050a57fe5b9060005260206000209060040201600301600085815260200190815260200160002060010160009054906101000a900473ffffffffffffffffffffffffffffffffffffffff1660405161055d9190611408565b60405180910390a35050565b60006060600080848154811061057b57fe5b90600052602060002090600402016002015490506040518060c001604052808681526020013373ffffffffffffffffffffffffffffffffffffffff1681526020016001808111156105c857fe5b81526020016000815260200183815260200182815250600085815481106105eb57fe5b906000526020600020906004020160030160008381526020019081526020016000206000820151816000019080519060200190610629929190610c42565b5060208201518160010160006101000a81548173ffffffffffffffffffffffffffffffffffffffff021916908373ffffffffffffffffffffffffffffffffffffffff16021790555060408201518160010160146101000a81548160ff0219169083600181111561069557fe5b02179055506060820151816002015560808201518160030190805190602001906106c0929190610cc2565b5060a08201518160040155905050600084815481106106db57fe5b9060005260206000209060040201600201600081548092919060010191905055507fa43d3e2c4b2742be21bb6e6b033af36bbf0721cf432f587fec1f1cde448e376a6000858154811061072a57fe5b9060005260206000209060040201600301600083815260200190815260200160002060405161075991906114b2565b60405180910390a160019250505092915050565b606080600160008473ffffffffffffffffffffffffffffffffffffffff1673ffffffffffffffffffffffffffffffffffffffff168152602001908152602001600020546040519080825280602002602001820160405280156107de5781602001602082028038833980820191505090505b509050600080905060008090505b60008054905081101561088f578473ffffffffffffffffffffffffffffffffffffffff166002600083815260200190815260200160002060009054906101000a900473ffffffffffffffffffffffffffffffffffffffff1673ffffffffffffffffffffffffffffffffffffffff161415610882578083838151811061086d57fe5b60200260200101818152505081806001019250505b80806001019150506107ec565b508192505050919050565b60608060008090505b600084815481106108b057fe5b906000526020600020906004020160020154811015610aee57600084815481106108d657fe5b906000526020600020906004020160030160008281526020019081526020016000206040518060c0016040529081600082018054600181600116156101000203166002900480601f01602080910402602001604051908101604052809291908181526020018280546001816001161561010002031660029004801561099c5780601f106109715761010080835404028352916020019161099c565b820191906000526020600020905b81548152906001019060200180831161097f57829003601f168201915b505050505081526020016001820160009054906101000a900473ffffffffffffffffffffffffffffffffffffffff1673ffffffffffffffffffffffffffffffffffffffff1673ffffffffffffffffffffffffffffffffffffffff1681526020016001820160149054906101000a900460ff166001811115610a1957fe5b6001811115610a2457fe5b81526020016002820154815260200160038201805480602002602001604051908101604052809291908181526020018280548015610ab757602002820191906000526020600020905b8160009054906101000a900473ffffffffffffffffffffffffffffffffffffffff1673ffffffffffffffffffffffffffffffffffffffff1681526020019060010190808311610a6d575b50505050508152602001600482015481525050828281518110610ad657fe5b602002602001018190525080806001019150506108a3565b507f7cd69a87e1a53bbfecadb22a21f9a3fcbee7b4b5c7d383084704ae842a73f57381604051610b1e9190611423565b60405180910390a180915050919050565b60006002600083815260200190815260200160002060009054906101000a900473ffffffffffffffffffffffffffffffffffffffff169050919050565b606080600080549050604051908082528060200260200182016040528015610ba35781602001602082028038833980820191505090505b50905060008090505b6001600080549050038111610c035760008181548110610bc857fe5b90600052602060002090600402016001015482600184510381518110610bea57fe5b6020026020010181815250508080600101915050610bac565b507f6f06012fb68b6098035e5a53ce097ea3975ec9c0b4b2b47905da2e60c144491d81604051610c339190611445565b60405180910390a18091505090565b828054600181600116156101000203166002900490600052602060002090601f016020900481019282601f10610c8357805160ff1916838001178555610cb1565b82800160010185558215610cb1579182015b82811115610cb0578251825591602001919060010190610c95565b5b509050610cbe9190610d4c565b5090565b828054828255906000526020600020908101928215610d3b579160200282015b82811115610d3a5782518260006101000a81548173ffffffffffffffffffffffffffffffffffffffff021916908373ffffffffffffffffffffffffffffffffffffffff16021790555091602001919060010190610ce2565b5b509050610d489190610d71565b5090565b610d6e91905b80821115610d6a576000816000905550600101610d52565b5090565b90565b610db191905b80821115610dad57600081816101000a81549073ffffffffffffffffffffffffffffffffffffffff021916905550600101610d77565b5090565b90565b600081359050610dc38161187c565b92915050565b600082601f830112610dda57600080fd5b8135610ded610de88261152a565b6114fd565b91508082526020830160208301858383011115610e0957600080fd5b610e14838284611787565b50505092915050565b600081359050610e2c81611893565b92915050565b600060208284031215610e4457600080fd5b6000610e5284828501610db4565b91505092915050565b600060208284031215610e6d57600080fd5b600082013567ffffffffffffffff811115610e8757600080fd5b610e9384828501610dc9565b91505092915050565b60008060408385031215610eaf57600080fd5b600083013567ffffffffffffffff811115610ec957600080fd5b610ed585828601610dc9565b9250506020610ee685828601610e1d565b9150509250929050565b600060208284031215610f0257600080fd5b6000610f1084828501610e1d565b91505092915050565b60008060408385031215610f2c57600080fd5b6000610f3a85828601610e1d565b9250506020610f4b85828601610e1d565b9150509250929050565b6000610f618383610fb7565b60208301905092915050565b6000610f79838361128a565b905092915050565b6000610f8d83836113cf565b60208301905092915050565b610fa28161173f565b82525050565b610fb1816116e4565b82525050565b610fc0816116d2565b82525050565b610fcf816116d2565b82525050565b6000610fe0826115b0565b610fea8185611626565b9350610ff583611556565b8060005b8381101561102657815161100d8882610f55565b9750611018836115f2565b925050600181019050610ff9565b5085935050505092915050565b600061103e826115bb565b6110488185611626565b935061105383611566565b8060005b8381101561108b5761106882611831565b6110728882610f55565b975061107d836115ff565b925050600181019050611057565b5085935050505092915050565b60006110a3826115c6565b6110ad8185611637565b9350836020820285016110bf8561157b565b8060005b858110156110fb57848403895281516110dc8582610f6d565b94506110e78361160c565b925060208a019950506001810190506110c3565b50829750879550505050505092915050565b6000611118826115d1565b6111228185611648565b935061112d8361158b565b8060005b8381101561115e5781516111458882610f81565b975061115083611619565b925050600181019050611131565b5085935050505092915050565b611174816116f6565b82525050565b61118381611751565b82525050565b6000611194826115e7565b61119e818561166a565b93506111ae818560208601611796565b6111b781611844565b840191505092915050565b60006111cd826115dc565b6111d78185611659565b93506111e7818560208601611796565b6111f081611844565b840191505092915050565b600081546001811660008114611218576001811461123e57611282565b607f60028304166112298187611659565b955060ff198316865260208601935050611282565b6002820461124c8187611659565b95506112578561159b565b60005b828110156112795781548189015260018201915060208101905061125a565b80880195505050505b505092915050565b600060c08301600083015184820360008601526112a782826111c2565b91505060208301516112bc6020860182610fa8565b5060408301516112cf604086018261117a565b5060608301516112e260608601826113cf565b50608083015184820360808601526112fa8282610fd5565b91505060a083015161130f60a08601826113cf565b508091505092915050565b600060c083016000808401858303600087015261133783826111fb565b9250506001840154905061134a816117e3565b6113576020870182610fa8565b5061136181611817565b61136e604087018261117a565b506002840154905061137f816117fd565b61138c60608701826113cf565b506003840185830360808701526113a38382611033565b925050600484015490506113b6816117fd565b6113c360a08701826113cf565b50819250505092915050565b6113d881611735565b82525050565b6113e781611735565b82525050565b60006020820190506114026000830184610fc6565b92915050565b600060208201905061141d6000830184610f99565b92915050565b6000602082019050818103600083015261143d8184611098565b905092915050565b6000602082019050818103600083015261145f818461110d565b905092915050565b600060208201905061147c600083018461116b565b92915050565b6000604082019050818103600083015261149c8185611189565b90506114ab60208301846113de565b9392505050565b600060208201905081810360008301526114cc818461131a565b905092915050565b60006040820190506114e960008301856113de565b6114f660208301846113de565b9392505050565b6000604051905081810181811067ffffffffffffffff8211171561152057600080fd5b8060405250919050565b600067ffffffffffffffff82111561154157600080fd5b601f19601f8301169050602081019050919050565b6000819050602082019050919050565b60008190508160005260206000209050919050565b6000819050602082019050919050565b6000819050602082019050919050565b60008190508160005260206000209050919050565b600081519050919050565b600081549050919050565b600081519050919050565b600081519050919050565b600081519050919050565b600081519050919050565b6000602082019050919050565b6000600182019050919050565b6000602082019050919050565b6000602082019050919050565b600082825260208201905092915050565b600082825260208201905092915050565b600082825260208201905092915050565b600082825260208201905092915050565b600082825260208201905092915050565b600073ffffffffffffffffffffffffffffffffffffffff82169050919050565b600073ffffffffffffffffffffffffffffffffffffffff82169050919050565b600060ff82169050919050565b6000819050919050565b60006116dd82611715565b9050919050565b60006116ef82611715565b9050919050565b60008115159050919050565b60008190506117108261186f565b919050565b600073ffffffffffffffffffffffffffffffffffffffff82169050919050565b6000819050919050565b600061174a82611763565b9050919050565b600061175c82611702565b9050919050565b600061176e82611775565b9050919050565b600061178082611715565b9050919050565b82818337600083830152505050565b60005b838110156117b4578082015181840152602081019050611799565b838111156117c3576000848401525b50505050565b60006117dc6117d783611855565b61167b565b9050919050565b60006117f66117f183611855565b61169b565b9050919050565b600061181061180b83611855565b6116c8565b9050919050565b600061182a61182583611862565b6116bb565b9050919050565b600061183d82546117c9565b9050919050565b6000601f19601f8301169050919050565b60008160001c9050919050565b60008160a01c9050919050565b6002811061187957fe5b50565b611885816116d2565b811461189057600080fd5b50565b61189c81611735565b81146118a757600080fd5b5056fea365627a7a72315820241a4c8b66ff145d7b4b0da383f194c1902fc532a5f52cca3ee11416c621ac416c6578706572696d656e74616cf564736f6c63430005100040",
  "source": "pragma solidity >=0.4.25 <0.7.0;\r\npragma experimental ABIEncoderV2;\r\nimport \"./User.sol\";\r\n\r\ncontract PostFactory {\r\n\r\n    struct Reponse{\r\n        string text;\r\n        address payable author;\r\n        State state;\r\n        uint nblike;\r\n        address[] like;\r\n        uint id;\r\n    }\r\n\r\n    struct Post{\r\n        string text;\r\n        uint id;\r\n        uint nbAnswer;\r\n        mapping(uint => Reponse) responses;\r\n    }\r\n\r\n    enum State {\r\n        val,\r\n        nonVal\r\n    }\r\n\r\n    event validateAnswerEvent(\r\n        address indexed _from,\r\n        uint indexed _id,\r\n        address _author\r\n    );\r\n\r\n    event getAllres(\r\n        Reponse[] reponse\r\n    );\r\n\r\n    Post[] posts;\r\n\tmapping (address => uint) ownerToPostMapping;\r\n\r\n\tmapping (uint => address) postToOwnerMapping;\r\n\r\nevent Posted(\r\n    address indexed userAdd,\r\n    string text,\r\n    uint idPost);\r\n\r\nevent answerPosted(\r\n    Reponse rep\r\n    );\r\n\r\nevent getAllpostsEvent(uint[] allpostsID);\r\nevent likeAnswerEvent(uint idpost, uint idAnswer);\r\n\r\n    function newPost(string memory _text) public {\r\n        uint id = posts.length;\r\n        posts.push(Post(_text,id,0));\r\n        postToOwnerMapping[id] = msg.sender;\r\n        ownerToPostMapping[msg.sender]++;\r\n        emit Posted(msg.sender,_text,id);\r\n    }\r\n\r\n    function getOwnerByPost(uint id) public view returns (address){\r\n        return postToOwnerMapping[id];\r\n    }\r\n\r\n\r\n    function getPostsByOwner(address _owner) public view returns (uint[] memory){\r\n        uint[] memory result = new uint[](ownerToPostMapping[_owner]);\r\n        uint counter = 0;\r\n        for (uint i = 0; i < posts.length; i++) {\r\n            if (postToOwnerMapping[i] == _owner) {\r\n                result[counter] = i;\r\n                counter++;\r\n            }\r\n        }\r\n        return result;\r\n    }\r\n\r\n    function getAllPost() public returns(uint[] memory){\r\n        uint[] memory resu = new uint[](posts.length);\r\n        for(uint i = 0; i <= posts.length-1; i++){\r\n            resu[resu.length-1] = posts[i].id;\r\n        }\r\n        emit getAllpostsEvent(resu);\r\n        return resu;\r\n    }\r\n\r\n    \r\n    function newAnswer(string memory _text, uint _postid) public returns (bool){\r\n        address[] memory like;\r\n        uint id = posts[_postid].nbAnswer;\r\n        posts[_postid].responses[id] = (Reponse(_text,msg.sender,State.nonVal,0,like,id));\r\n        posts[_postid].nbAnswer++;\r\n        emit answerPosted(posts[_postid].responses[id]);\r\n        return true;\r\n    }\r\n\r\n    function getAnswersByPost(uint _post) public returns (Reponse[] memory){\r\n        Reponse[] memory res;\r\n        for(uint i = 0;i<posts[_post].nbAnswer;i++){\r\n            res[i] = (posts[_post].responses[i]);\r\n        }\r\n        emit getAllres(res);\r\n        return res;\r\n    }\r\n\r\n    function likeAnswer(uint _post, uint _id) public {\r\n        posts[_post].responses[_id].like[posts[_post].responses[_id].nblike] = msg.sender;\r\n        posts[_post].responses[_id].nblike++;\r\n        emit likeAnswerEvent(_post,_id);\r\n    }\r\n\r\n    function validateAnswer(uint _post, uint _id) public{\r\n        posts[_post].responses[_id].state = State.val;\r\n        emit validateAnswerEvent(msg.sender,_id,posts[_post].responses[_id].author);\r\n    }\r\n}",
  "sourcePath": "D:\\Multimedia\\Documents\\Ynov\\M2\\Blockchain\\Projet DApp\\StackoverCoin\\contracts\\Post.sol",
  "compiler": {
    "name": "solc",
    "version": "0.5.16+commit.9c3226ce.Emscripten.clang"
  },
  "schemaVersion": "3.0.23",
  "updatedAt": "2020-03-12T08:18:47.360Z",
  "networkType": "ethereum",
  "devdoc": {
    "methods": {}
  },
  "userdoc": {
    "methods": {}
  }
}