{
  "contractName": "PostFactory",
  "abi": [
    {
      "anonymous": false,
      "inputs": [
        {
          "indexed": true,
          "internalType": "address",
          "name": "userAdd",
          "type": "address"
        },
        {
          "indexed": false,
          "internalType": "string",
          "name": "text",
          "type": "string"
        },
        {
          "indexed": false,
          "internalType": "uint256",
          "name": "idPost",
          "type": "uint256"
        }
      ],
      "name": "Posted",
      "type": "event"
    },
    {
      "anonymous": false,
      "inputs": [
        {
          "components": [
            {
              "internalType": "string",
              "name": "text",
              "type": "string"
            },
            {
              "internalType": "address",
              "name": "author",
              "type": "address"
            },
            {
              "internalType": "enum PostFactory.State",
              "name": "state",
              "type": "uint8"
            },
            {
              "internalType": "uint256",
              "name": "nblike",
              "type": "uint256"
            },
            {
              "internalType": "address[]",
              "name": "like",
              "type": "address[]"
            },
            {
              "internalType": "uint256",
              "name": "id",
              "type": "uint256"
            }
          ],
          "indexed": false,
          "internalType": "struct PostFactory.Reponse",
          "name": "rep",
          "type": "tuple"
        }
      ],
      "name": "answerPosted",
      "type": "event"
    },
    {
      "anonymous": false,
      "inputs": [
        {
          "indexed": false,
          "internalType": "uint256[]",
          "name": "allpostsID",
          "type": "uint256[]"
        }
      ],
      "name": "getAllpostsEvent",
      "type": "event"
    },
    {
      "anonymous": false,
      "inputs": [
        {
          "components": [
            {
              "internalType": "string",
              "name": "text",
              "type": "string"
            },
            {
              "internalType": "address",
              "name": "author",
              "type": "address"
            },
            {
              "internalType": "enum PostFactory.State",
              "name": "state",
              "type": "uint8"
            },
            {
              "internalType": "uint256",
              "name": "nblike",
              "type": "uint256"
            },
            {
              "internalType": "address[]",
              "name": "like",
              "type": "address[]"
            },
            {
              "internalType": "uint256",
              "name": "id",
              "type": "uint256"
            }
          ],
          "indexed": false,
          "internalType": "struct PostFactory.Reponse[]",
          "name": "reponse",
          "type": "tuple[]"
        }
      ],
      "name": "getAllres",
      "type": "event"
    },
    {
      "anonymous": false,
      "inputs": [
        {
          "indexed": false,
          "internalType": "uint256",
          "name": "idpost",
          "type": "uint256"
        },
        {
          "indexed": false,
          "internalType": "uint256",
          "name": "idAnswer",
          "type": "uint256"
        }
      ],
      "name": "likeAnswerEvent",
      "type": "event"
    },
    {
      "anonymous": false,
      "inputs": [
        {
          "indexed": true,
          "internalType": "address",
          "name": "_from",
          "type": "address"
        },
        {
          "indexed": true,
          "internalType": "uint256",
          "name": "_id",
          "type": "uint256"
        },
        {
          "indexed": false,
          "internalType": "address",
          "name": "_author",
          "type": "address"
        }
      ],
      "name": "validateAnswerEvent",
      "type": "event"
    },
    {
      "constant": false,
      "inputs": [
        {
          "internalType": "string",
          "name": "_titre",
          "type": "string"
        },
        {
          "internalType": "string",
          "name": "_text",
          "type": "string"
        }
      ],
      "name": "newPost",
      "outputs": [],
      "payable": false,
      "stateMutability": "nonpayable",
      "type": "function"
    },
    {
      "constant": true,
      "inputs": [
        {
          "internalType": "uint256",
          "name": "id",
          "type": "uint256"
        }
      ],
      "name": "getOwnerByPost",
      "outputs": [
        {
          "internalType": "address",
          "name": "",
          "type": "address"
        }
      ],
      "payable": false,
      "stateMutability": "view",
      "type": "function"
    },
    {
      "constant": true,
      "inputs": [
        {
          "internalType": "address",
          "name": "_owner",
          "type": "address"
        }
      ],
      "name": "getPostsByOwner",
      "outputs": [
        {
          "internalType": "uint256[]",
          "name": "",
          "type": "uint256[]"
        }
      ],
      "payable": false,
      "stateMutability": "view",
      "type": "function"
    },
    {
      "constant": true,
      "inputs": [],
      "name": "getAllPost",
      "outputs": [
        {
          "internalType": "uint256[]",
          "name": "",
          "type": "uint256[]"
        }
      ],
      "payable": false,
      "stateMutability": "view",
      "type": "function"
    },
    {
      "constant": false,
      "inputs": [
        {
          "internalType": "string",
          "name": "_text",
          "type": "string"
        },
        {
          "internalType": "uint256",
          "name": "_postid",
          "type": "uint256"
        }
      ],
      "name": "newAnswer",
      "outputs": [
        {
          "internalType": "bool",
          "name": "",
          "type": "bool"
        }
      ],
      "payable": false,
      "stateMutability": "nonpayable",
      "type": "function"
    },
    {
      "constant": false,
      "inputs": [
        {
          "internalType": "uint256",
          "name": "_postid",
          "type": "uint256"
        }
      ],
      "name": "getPostById",
      "outputs": [
        {
          "internalType": "string",
          "name": "titre",
          "type": "string"
        },
        {
          "internalType": "string",
          "name": "contenue",
          "type": "string"
        },
        {
          "internalType": "bool",
          "name": "validate",
          "type": "bool"
        },
        {
          "internalType": "uint256",
          "name": "nbAnswer",
          "type": "uint256"
        },
        {
          "internalType": "address",
          "name": "author",
          "type": "address"
        }
      ],
      "payable": false,
      "stateMutability": "nonpayable",
      "type": "function"
    },
    {
      "constant": false,
      "inputs": [
        {
          "internalType": "uint256",
          "name": "_post",
          "type": "uint256"
        }
      ],
      "name": "getAnswersByPost",
      "outputs": [
        {
          "components": [
            {
              "internalType": "string",
              "name": "text",
              "type": "string"
            },
            {
              "internalType": "address",
              "name": "author",
              "type": "address"
            },
            {
              "internalType": "enum PostFactory.State",
              "name": "state",
              "type": "uint8"
            },
            {
              "internalType": "uint256",
              "name": "nblike",
              "type": "uint256"
            },
            {
              "internalType": "address[]",
              "name": "like",
              "type": "address[]"
            },
            {
              "internalType": "uint256",
              "name": "id",
              "type": "uint256"
            }
          ],
          "internalType": "struct PostFactory.Reponse[]",
          "name": "",
          "type": "tuple[]"
        }
      ],
      "payable": false,
      "stateMutability": "nonpayable",
      "type": "function"
    },
    {
      "constant": false,
      "inputs": [
        {
          "internalType": "uint256",
          "name": "_post",
          "type": "uint256"
        },
        {
          "internalType": "uint256",
          "name": "_id",
          "type": "uint256"
        }
      ],
      "name": "likeAnswer",
      "outputs": [],
      "payable": false,
      "stateMutability": "nonpayable",
      "type": "function"
    },
    {
      "constant": false,
      "inputs": [
        {
          "internalType": "uint256",
          "name": "_post",
          "type": "uint256"
        },
        {
          "internalType": "uint256",
          "name": "_id",
          "type": "uint256"
        }
      ],
      "name": "validateAnswer",
      "outputs": [],
      "payable": false,
      "stateMutability": "nonpayable",
      "type": "function"
    }
  ],
  "bytecode": "0x608060405234801561001057600080fd5b506118b3806100206000396000f3fe608060405234801561001057600080fd5b50600436106100935760003560e01c80639e28cf96116100665780639e28cf9614610134578063a91e6d7d14610150578063ad02e51b14610180578063bbb586e3146101b0578063da7d9d10146101e057610093565b80632b2e998b146100985780632ece5df1146100b457806364e95895146100d05780639ad26e0514610104575b600080fd5b6100b260048036036100ad91908101906111f8565b6101fe565b005b6100ce60048036036100c991908101906111f8565b610335565b005b6100ea60048036036100e591908101906111cf565b61042d565b6040516100fb95949392919061157f565b60405180910390f35b61011e6004803603610119919081019061117b565b6106bd565b60405161012b9190611564565b60405180910390f35b61014e6004803603610149919081019061110f565b61085c565b005b61016a600480360361016591908101906110e6565b610a5e565b6040516101779190611542565b60405180910390f35b61019a600480360361019591908101906111cf565b610b8b565b6040516101a79190611520565b60405180910390f35b6101ca60048036036101c591908101906111cf565b610e20565b6040516101d79190611505565b60405180910390f35b6101e8610e5d565b6040516101f59190611542565b60405180910390f35b336000838154811061020c57fe5b906000526020600020906006020160050160008381526020019081526020016000206003016000848154811061023e57fe5b90600052602060002090600602016005016000848152602001908152602001600020600201548154811061026e57fe5b9060005260206000200160006101000a81548173ffffffffffffffffffffffffffffffffffffffff021916908373ffffffffffffffffffffffffffffffffffffffff160217905550600082815481106102c357fe5b90600052602060002090600602016005016000828152602001908152602001600020600201600081548092919060010191905055507f2147eae4ed7814ca1dbce594add4208bd970da02cce92a492f86e2d579837c5e8282604051610329929190611610565b60405180910390a15050565b600080838154811061034357fe5b9060005260206000209060060201600501600083815260200190815260200160002060010160146101000a81548160ff0219169083600181111561038357fe5b0217905550803373ffffffffffffffffffffffffffffffffffffffff167fe068d44ff793d398acced9bebf8ccca9f439c833ba7c2af9c076b49478933246600085815481106103ce57fe5b9060005260206000209060060201600501600085815260200190815260200160002060010160009054906101000a900473ffffffffffffffffffffffffffffffffffffffff166040516104219190611505565b60405180910390a35050565b6060806000806000806000905060008090505b6000888154811061044d57fe5b9060005260206000209060060201600401548110156104d55760018081111561047257fe5b6000898154811061047f57fe5b9060005260206000209060060201600501600083815260200190815260200160002060010160149054906101000a900460ff1660018111156104bd57fe5b14156104c857600191505b8080600101915050610440565b50600087815481106104e357fe5b90600052602060002090600602016000016000888154811061050157fe5b90600052602060002090600602016001018260008a8154811061052057fe5b90600052602060002090600602016004015460008b8154811061053f57fe5b906000526020600020906006020160020160009054906101000a900473ffffffffffffffffffffffffffffffffffffffff16848054600181600116156101000203166002900480601f0160208091040260200160405190810160405280929190818152602001828054600181600116156101000203166002900480156106065780601f106105db57610100808354040283529160200191610606565b820191906000526020600020905b8154815290600101906020018083116105e957829003601f168201915b50505050509450838054600181600116156101000203166002900480601f0160208091040260200160405190810160405280929190818152602001828054600181600116156101000203166002900480156106a25780601f10610677576101008083540402835291602001916106a2565b820191906000526020600020905b81548152906001019060200180831161068557829003601f168201915b50505050509350955095509550955095505091939590929450565b6000606060008084815481106106cf57fe5b90600052602060002090600602016004015490506040518060c001604052808681526020013373ffffffffffffffffffffffffffffffffffffffff16815260200160018081111561071c57fe5b815260200160008152602001838152602001828152506000858154811061073f57fe5b90600052602060002090600602016005016000838152602001908152602001600020600082015181600001908051906020019061077d929190610ef6565b5060208201518160010160006101000a81548173ffffffffffffffffffffffffffffffffffffffff021916908373ffffffffffffffffffffffffffffffffffffffff16021790555060408201518160010160146101000a81548160ff021916908360018111156107e957fe5b0217905550606082015181600201556080820151816003019080519060200190610814929190610f76565b5060a082015181600401559050506000848154811061082f57fe5b90600052602060002090600602016004016000815480929190600101919050555060019250505092915050565b60008080549050905060006040518060a001604052808581526020018481526020013373ffffffffffffffffffffffffffffffffffffffff16815260200183815260200160008152509080600181540180825580915050906001820390600052602060002090600602016000909192909190915060008201518160000190805190602001906108ec929190610ef6565b506020820151816001019080519060200190610909929190610ef6565b5060408201518160020160006101000a81548173ffffffffffffffffffffffffffffffffffffffff021916908373ffffffffffffffffffffffffffffffffffffffff1602179055506060820151816003015560808201518160040155505050336002600083815260200190815260200160002060006101000a81548173ffffffffffffffffffffffffffffffffffffffff021916908373ffffffffffffffffffffffffffffffffffffffff160217905550600160003373ffffffffffffffffffffffffffffffffffffffff1673ffffffffffffffffffffffffffffffffffffffff168152602001908152602001600020600081548092919060010191905055503373ffffffffffffffffffffffffffffffffffffffff167fe496cbd014e4a7c5ba79bb31c56d6494e13a21c9fe6959dc3c0f2e95317ec52d8383604051610a519291906115e0565b60405180910390a2505050565b606080600160008473ffffffffffffffffffffffffffffffffffffffff1673ffffffffffffffffffffffffffffffffffffffff16815260200190815260200160002054604051908082528060200260200182016040528015610acf5781602001602082028038833980820191505090505b509050600080905060008090505b600080549050811015610b80578473ffffffffffffffffffffffffffffffffffffffff166002600083815260200190815260200160002060009054906101000a900473ffffffffffffffffffffffffffffffffffffffff1673ffffffffffffffffffffffffffffffffffffffff161415610b735780838381518110610b5e57fe5b60200260200101818152505081806001019250505b8080600101915050610add565b508192505050919050565b60608060008090505b60008481548110610ba157fe5b906000526020600020906006020160040154811015610ddf5760008481548110610bc757fe5b906000526020600020906006020160050160008281526020019081526020016000206040518060c0016040529081600082018054600181600116156101000203166002900480601f016020809104026020016040519081016040528092919081815260200182805460018160011615610100020316600290048015610c8d5780601f10610c6257610100808354040283529160200191610c8d565b820191906000526020600020905b815481529060010190602001808311610c7057829003601f168201915b505050505081526020016001820160009054906101000a900473ffffffffffffffffffffffffffffffffffffffff1673ffffffffffffffffffffffffffffffffffffffff1673ffffffffffffffffffffffffffffffffffffffff1681526020016001820160149054906101000a900460ff166001811115610d0a57fe5b6001811115610d1557fe5b81526020016002820154815260200160038201805480602002602001604051908101604052809291908181526020018280548015610da857602002820191906000526020600020905b8160009054906101000a900473ffffffffffffffffffffffffffffffffffffffff1673ffffffffffffffffffffffffffffffffffffffff1681526020019060010190808311610d5e575b50505050508152602001600482015481525050828281518110610dc757fe5b60200260200101819052508080600101915050610b94565b507f7cd69a87e1a53bbfecadb22a21f9a3fcbee7b4b5c7d383084704ae842a73f57381604051610e0f9190611520565b60405180910390a180915050919050565b60006002600083815260200190815260200160002060009054906101000a900473ffffffffffffffffffffffffffffffffffffffff169050919050565b606080600080549050604051908082528060200260200182016040528015610e945781602001602082028038833980820191505090505b50905060008090505b600080549050811015610eee5760008181548110610eb757fe5b906000526020600020906006020160030154828281518110610ed557fe5b6020026020010181815250508080600101915050610e9d565b508091505090565b828054600181600116156101000203166002900490600052602060002090601f016020900481019282601f10610f3757805160ff1916838001178555610f65565b82800160010185558215610f65579182015b82811115610f64578251825591602001919060010190610f49565b5b509050610f729190611000565b5090565b828054828255906000526020600020908101928215610fef579160200282015b82811115610fee5782518260006101000a81548173ffffffffffffffffffffffffffffffffffffffff021916908373ffffffffffffffffffffffffffffffffffffffff16021790555091602001919060010190610f96565b5b509050610ffc9190611025565b5090565b61102291905b8082111561101e576000816000905550600101611006565b5090565b90565b61106591905b8082111561106157600081816101000a81549073ffffffffffffffffffffffffffffffffffffffff02191690555060010161102b565b5090565b90565b60008135905061107781611842565b92915050565b600082601f83011261108e57600080fd5b81356110a161109c82611666565b611639565b915080825260208301602083018583830111156110bd57600080fd5b6110c88382846117e2565b50505092915050565b6000813590506110e081611859565b92915050565b6000602082840312156110f857600080fd5b600061110684828501611068565b91505092915050565b6000806040838503121561112257600080fd5b600083013567ffffffffffffffff81111561113c57600080fd5b6111488582860161107d565b925050602083013567ffffffffffffffff81111561116557600080fd5b6111718582860161107d565b9150509250929050565b6000806040838503121561118e57600080fd5b600083013567ffffffffffffffff8111156111a857600080fd5b6111b48582860161107d565b92505060206111c5858286016110d1565b9150509250929050565b6000602082840312156111e157600080fd5b60006111ef848285016110d1565b91505092915050565b6000806040838503121561120b57600080fd5b6000611219858286016110d1565b925050602061122a858286016110d1565b9150509250929050565b60006112408383611278565b60208301905092915050565b60006112588383611457565b905092915050565b600061126c83836114e7565b60208301905092915050565b61128181611775565b82525050565b61129081611775565b82525050565b60006112a1826116c2565b6112ab8185611720565b93506112b683611692565b8060005b838110156112e75781516112ce8882611234565b97506112d9836116f9565b9250506001810190506112ba565b5085935050505092915050565b60006112ff826116cd565b6113098185611731565b93508360208202850161131b856116a2565b8060005b858110156113575784840389528151611338858261124c565b945061134383611706565b925060208a0199505060018101905061131f565b50829750879550505050505092915050565b6000611374826116d8565b61137e8185611742565b9350611389836116b2565b8060005b838110156113ba5781516113a18882611260565b97506113ac83611713565b92505060018101905061138d565b5085935050505092915050565b6113d081611787565b82525050565b6113df816117d0565b82525050565b60006113f0826116ee565b6113fa8185611764565b935061140a8185602086016117f1565b61141381611824565b840191505092915050565b6000611429826116e3565b6114338185611753565b93506114438185602086016117f1565b61144c81611824565b840191505092915050565b600060c0830160008301518482036000860152611474828261141e565b91505060208301516114896020860182611278565b50604083015161149c60408601826113d6565b5060608301516114af60608601826114e7565b50608083015184820360808601526114c78282611296565b91505060a08301516114dc60a08601826114e7565b508091505092915050565b6114f0816117c6565b82525050565b6114ff816117c6565b82525050565b600060208201905061151a6000830184611287565b92915050565b6000602082019050818103600083015261153a81846112f4565b905092915050565b6000602082019050818103600083015261155c8184611369565b905092915050565b600060208201905061157960008301846113c7565b92915050565b600060a082019050818103600083015261159981886113e5565b905081810360208301526115ad81876113e5565b90506115bc60408301866113c7565b6115c960608301856114f6565b6115d66080830184611287565b9695505050505050565b600060408201905081810360008301526115fa81856113e5565b905061160960208301846114f6565b9392505050565b600060408201905061162560008301856114f6565b61163260208301846114f6565b9392505050565b6000604051905081810181811067ffffffffffffffff8211171561165c57600080fd5b8060405250919050565b600067ffffffffffffffff82111561167d57600080fd5b601f19601f8301169050602081019050919050565b6000819050602082019050919050565b6000819050602082019050919050565b6000819050602082019050919050565b600081519050919050565b600081519050919050565b600081519050919050565b600081519050919050565b600081519050919050565b6000602082019050919050565b6000602082019050919050565b6000602082019050919050565b600082825260208201905092915050565b600082825260208201905092915050565b600082825260208201905092915050565b600082825260208201905092915050565b600082825260208201905092915050565b6000611780826117a6565b9050919050565b60008115159050919050565b60008190506117a182611835565b919050565b600073ffffffffffffffffffffffffffffffffffffffff82169050919050565b6000819050919050565b60006117db82611793565b9050919050565b82818337600083830152505050565b60005b8381101561180f5780820151818401526020810190506117f4565b8381111561181e576000848401525b50505050565b6000601f19601f8301169050919050565b6002811061183f57fe5b50565b61184b81611775565b811461185657600080fd5b50565b611862816117c6565b811461186d57600080fd5b5056fea365627a7a723158200ff4b21c9a97a1235006f2f7d508685b12dcd0acb8b42eb934e1f397df17a3736c6578706572696d656e74616cf564736f6c63430005100040",
  "source": "pragma solidity >=0.4.25 <0.7.0;\npragma experimental ABIEncoderV2;\nimport \"./User.sol\";\n\ncontract PostFactory {\n\n    struct Reponse{\n        string text;\n        address author;\n        State state;\n        uint nblike;\n        address[] like;\n        uint id;\n    }\n\n    struct Post{\n        string titre;\n        string contenue;\n        address author;\n        uint id;\n        uint nbAnswer;\n        mapping(uint => Reponse) responses;\n    }\n\n    enum State {\n        val,\n        nonVal\n    }\n\n    event validateAnswerEvent(\n        address indexed _from,\n        uint indexed _id,\n        address _author\n    );\n\n    event getAllres(\n        Reponse[] reponse\n    );\n\n    Post[] posts;\n\tmapping (address => uint) ownerToPostMapping;\n\n\tmapping (uint => address) postToOwnerMapping;\n\nevent Posted(\n    address indexed userAdd,\n    string text,\n    uint idPost);\n\nevent answerPosted(\n    Reponse rep\n    );\n\nevent getAllpostsEvent(uint[] allpostsID);\nevent likeAnswerEvent(uint idpost, uint idAnswer);\n\n    function newPost(string memory _titre,string memory _text) public {\n        uint id = posts.length;\n        posts.push(Post(_titre,_text,msg.sender,id,0));\n        postToOwnerMapping[id] = msg.sender;\n        ownerToPostMapping[msg.sender]++;\n        emit Posted(msg.sender,_text,id);\n    }\n\n    function getOwnerByPost(uint id) public view returns (address){\n        return postToOwnerMapping[id];\n    }\n\n\n    function getPostsByOwner(address _owner) public view returns (uint[] memory){\n        uint[] memory result = new uint[](ownerToPostMapping[_owner]);\n        uint counter = 0;\n        for (uint i = 0; i < posts.length; i++) {\n            if (postToOwnerMapping[i] == _owner) {\n                result[counter] = i;\n                counter++;\n            }\n        }\n        return result;\n    }\n\n    function getAllPost() public view returns(uint[] memory){\n        uint[] memory resu = new uint[](posts.length);\n        for(uint i = 0; i < posts.length; i++){\n            resu[i] = posts[i].id;\n        }\n        return resu;\n    }\n\n    function newAnswer(string memory _text, uint _postid) public returns (bool){\n        address[] memory like;\n        uint id = posts[_postid].nbAnswer;\n        posts[_postid].responses[id] = (Reponse(_text,msg.sender,State.nonVal,0,like,id));\n        posts[_postid].nbAnswer++;\n        return true;\n    }\n    function getPostById(uint _postid) public returns (string memory titre,string memory contenue, bool validate, uint nbAnswer, address author){\n        bool responseVal = false;\n        for(uint i = 0; i<posts[_postid].nbAnswer;i++) {\n            if(posts[_postid].responses[i].state==State.nonVal){\n                responseVal = true;\n            }\n        }\n        return (posts[_postid].titre,posts[_postid].contenue,responseVal,posts[_postid].nbAnswer,posts[_postid].author);\n    }\n\n    function getAnswersByPost(uint _post) public returns (Reponse[] memory){\n        Reponse[] memory res;\n        for(uint i = 0;i<posts[_post].nbAnswer;i++){\n            res[i] = (posts[_post].responses[i]);\n        }\n        emit getAllres(res);\n        return res;\n    }\n\n    function likeAnswer(uint _post, uint _id) public {\n        posts[_post].responses[_id].like[posts[_post].responses[_id].nblike] = msg.sender;\n        posts[_post].responses[_id].nblike++;\n        emit likeAnswerEvent(_post,_id);\n    }\n\n    function validateAnswer(uint _post, uint _id) public{\n        posts[_post].responses[_id].state = State.val;\n        emit validateAnswerEvent(msg.sender,_id,posts[_post].responses[_id].author);\n    }\n}",
  "sourcePath": "D:\\Users\\boche\\Documents\\Professionnel\\Cours\\Mastere 2\\Blockchain\\StackoverCoin\\contracts\\Post.sol",
  "compiler": {
    "name": "solc",
    "version": "0.5.16+commit.9c3226ce.Emscripten.clang"
  },
  "schemaVersion": "3.0.23",
  "updatedAt": "2020-03-18T19:41:13.964Z",
  "networkType": "ethereum",
  "devdoc": {
    "methods": {}
  },
  "userdoc": {
    "methods": {}
  }
}