{
  "contractName": "PostFactory",
  "abi": [
    {
      "anonymous": false,
      "inputs": [
        {
          "indexed": true,
          "internalType": "address",
          "name": "userAdd",
          "type": "address"
        },
        {
          "indexed": false,
          "internalType": "string",
          "name": "text",
          "type": "string"
        },
        {
          "indexed": false,
          "internalType": "uint256",
          "name": "idPost",
          "type": "uint256"
        }
      ],
      "name": "Posted",
      "type": "event"
    },
    {
      "anonymous": false,
      "inputs": [
        {
          "components": [
            {
              "internalType": "string",
              "name": "text",
              "type": "string"
            },
            {
              "internalType": "address",
              "name": "author",
              "type": "address"
            },
            {
              "internalType": "enum PostFactory.State",
              "name": "state",
              "type": "uint8"
            },
            {
              "internalType": "uint256",
              "name": "nblike",
              "type": "uint256"
            },
            {
              "internalType": "address[]",
              "name": "like",
              "type": "address[]"
            },
            {
              "internalType": "uint256",
              "name": "id",
              "type": "uint256"
            }
          ],
          "indexed": false,
          "internalType": "struct PostFactory.Reponse",
          "name": "rep",
          "type": "tuple"
        }
      ],
      "name": "answerPosted",
      "type": "event"
    },
    {
      "anonymous": false,
      "inputs": [
        {
          "indexed": false,
          "internalType": "uint256[]",
          "name": "allpostsID",
          "type": "uint256[]"
        }
      ],
      "name": "getAllpostsEvent",
      "type": "event"
    },
    {
      "anonymous": false,
      "inputs": [
        {
          "components": [
            {
              "internalType": "string",
              "name": "text",
              "type": "string"
            },
            {
              "internalType": "address",
              "name": "author",
              "type": "address"
            },
            {
              "internalType": "enum PostFactory.State",
              "name": "state",
              "type": "uint8"
            },
            {
              "internalType": "uint256",
              "name": "nblike",
              "type": "uint256"
            },
            {
              "internalType": "address[]",
              "name": "like",
              "type": "address[]"
            },
            {
              "internalType": "uint256",
              "name": "id",
              "type": "uint256"
            }
          ],
          "indexed": false,
          "internalType": "struct PostFactory.Reponse[]",
          "name": "reponse",
          "type": "tuple[]"
        }
      ],
      "name": "getAllres",
      "type": "event"
    },
    {
      "anonymous": false,
      "inputs": [
        {
          "indexed": false,
          "internalType": "uint256",
          "name": "idpost",
          "type": "uint256"
        },
        {
          "indexed": false,
          "internalType": "uint256",
          "name": "idAnswer",
          "type": "uint256"
        }
      ],
      "name": "likeAnswerEvent",
      "type": "event"
    },
    {
      "anonymous": false,
      "inputs": [
        {
          "indexed": true,
          "internalType": "address",
          "name": "_from",
          "type": "address"
        },
        {
          "indexed": true,
          "internalType": "uint256",
          "name": "_id",
          "type": "uint256"
        },
        {
          "indexed": false,
          "internalType": "address",
          "name": "_author",
          "type": "address"
        }
      ],
      "name": "validateAnswerEvent",
      "type": "event"
    },
    {
      "constant": false,
      "inputs": [
        {
          "internalType": "string",
          "name": "_titre",
          "type": "string"
        },
        {
          "internalType": "string",
          "name": "_text",
          "type": "string"
        }
      ],
      "name": "newPost",
      "outputs": [],
      "payable": false,
      "stateMutability": "nonpayable",
      "type": "function"
    },
    {
      "constant": true,
      "inputs": [
        {
          "internalType": "uint256",
          "name": "id",
          "type": "uint256"
        }
      ],
      "name": "getOwnerByPost",
      "outputs": [
        {
          "internalType": "address",
          "name": "",
          "type": "address"
        }
      ],
      "payable": false,
      "stateMutability": "view",
      "type": "function"
    },
    {
      "constant": true,
      "inputs": [
        {
          "internalType": "address",
          "name": "_owner",
          "type": "address"
        }
      ],
      "name": "getPostsByOwner",
      "outputs": [
        {
          "internalType": "uint256[]",
          "name": "",
          "type": "uint256[]"
        }
      ],
      "payable": false,
      "stateMutability": "view",
      "type": "function"
    },
    {
      "constant": true,
      "inputs": [],
      "name": "getAllPost",
      "outputs": [
        {
          "internalType": "uint256[]",
          "name": "",
          "type": "uint256[]"
        }
      ],
      "payable": false,
      "stateMutability": "view",
      "type": "function"
    },
    {
      "constant": false,
      "inputs": [
        {
          "internalType": "string",
          "name": "_text",
          "type": "string"
        },
        {
          "internalType": "uint256",
          "name": "_postid",
          "type": "uint256"
        }
      ],
      "name": "newAnswer",
      "outputs": [
        {
          "internalType": "bool",
          "name": "",
          "type": "bool"
        }
      ],
      "payable": false,
      "stateMutability": "nonpayable",
      "type": "function"
    },
    {
      "constant": true,
      "inputs": [
        {
          "internalType": "uint256",
          "name": "_postid",
          "type": "uint256"
        }
      ],
      "name": "getPostById",
      "outputs": [
        {
          "internalType": "string",
          "name": "titre",
          "type": "string"
        },
        {
          "internalType": "string",
          "name": "contenue",
          "type": "string"
        },
        {
          "internalType": "uint256",
          "name": "id",
          "type": "uint256"
        },
        {
          "internalType": "bool",
          "name": "validate",
          "type": "bool"
        },
        {
          "internalType": "uint256",
          "name": "nbAnswer",
          "type": "uint256"
        },
        {
          "internalType": "address",
          "name": "author",
          "type": "address"
        }
      ],
      "payable": false,
      "stateMutability": "view",
      "type": "function"
    },
    {
      "constant": true,
      "inputs": [
        {
          "internalType": "uint256",
          "name": "_post",
          "type": "uint256"
        },
        {
          "internalType": "uint256",
          "name": "_id",
          "type": "uint256"
        }
      ],
      "name": "getAnswerByPost",
      "outputs": [
        {
          "internalType": "string",
          "name": "text",
          "type": "string"
        },
        {
          "internalType": "address",
          "name": "author",
          "type": "address"
        },
        {
          "internalType": "bool",
          "name": "state",
          "type": "bool"
        },
        {
          "internalType": "uint256",
          "name": "nblike",
          "type": "uint256"
        },
        {
          "internalType": "uint256",
          "name": "id",
          "type": "uint256"
        },
        {
          "internalType": "address[]",
          "name": "likeur",
          "type": "address[]"
        }
      ],
      "payable": false,
      "stateMutability": "view",
      "type": "function"
    },
    {
      "constant": false,
      "inputs": [
        {
          "internalType": "uint256",
          "name": "_post",
          "type": "uint256"
        },
        {
          "internalType": "uint256",
          "name": "_id",
          "type": "uint256"
        }
      ],
      "name": "likeAnswer",
      "outputs": [],
      "payable": false,
      "stateMutability": "nonpayable",
      "type": "function"
    },
    {
      "constant": false,
      "inputs": [
        {
          "internalType": "uint256",
          "name": "_post",
          "type": "uint256"
        },
        {
          "internalType": "uint256",
          "name": "_id",
          "type": "uint256"
        }
      ],
      "name": "validateAnswer",
      "outputs": [],
      "payable": false,
      "stateMutability": "nonpayable",
      "type": "function"
    }
  ],
  "bytecode": "0x608060405234801561001057600080fd5b506119c9806100206000396000f3fe608060405234801561001057600080fd5b50600436106100935760003560e01c80639ad26e05116100665780639ad26e051461013a5780639e28cf961461016a578063a91e6d7d14610186578063bbb586e3146101b6578063da7d9d10146101e657610093565b80632b2e998b146100985780632ece5df1146100b457806364e95895146100d05780638226a84a14610105575b600080fd5b6100b260048036036100ad9190810190611358565b610204565b005b6100ce60048036036100c99190810190611358565b6103a1565b005b6100ea60048036036100e5919081019061132f565b610564565b6040516100fc969594939291906116d7565b60405180910390f35b61011f600480360361011a9190810190611358565b6107f8565b60405161013196959493929190611668565b60405180910390f35b610154600480360361014f91908101906112db565b610ab2565b604051610161919061164d565b60405180910390f35b610184600480360361017f919081019061126f565b610c51565b005b6101a0600480360361019b9190810190611246565b610e53565b6040516101ad919061162b565b60405180910390f35b6101d060048036036101cb919081019061132f565b610f80565b6040516101dd9190611610565b60405180910390f35b6101ee610fbd565b6040516101fb919061162b565b60405180910390f35b6000828154811061021157fe5b9060005260206000209060060201600501600082815260200190815260200160002060010160009054906101000a900473ffffffffffffffffffffffffffffffffffffffff1673ffffffffffffffffffffffffffffffffffffffff163373ffffffffffffffffffffffffffffffffffffffff1614156102c5576040517f08c379a00000000000000000000000000000000000000000000000000000000081526004016102bc90611776565b60405180910390fd5b600082815481106102d257fe5b906000526020600020906006020160050160008281526020019081526020016000206003013390806001815401808255809150509060018203906000526020600020016000909192909190916101000a81548173ffffffffffffffffffffffffffffffffffffffff021916908373ffffffffffffffffffffffffffffffffffffffff160217905550506000828154811061036857fe5b90600052602060002090600602016005016000828152602001908152602001600020600201600081548092919060010191905055505050565b600082815481106103ae57fe5b906000526020600020906006020160020160009054906101000a900473ffffffffffffffffffffffffffffffffffffffff1673ffffffffffffffffffffffffffffffffffffffff163373ffffffffffffffffffffffffffffffffffffffff161461044d576040517f08c379a0000000000000000000000000000000000000000000000000000000008152600401610444906117b6565b60405180910390fd5b6000828154811061045a57fe5b9060005260206000209060060201600501600082815260200190815260200160002060010160009054906101000a900473ffffffffffffffffffffffffffffffffffffffff1673ffffffffffffffffffffffffffffffffffffffff163373ffffffffffffffffffffffffffffffffffffffff161461050d576040517f08c379a000000000000000000000000000000000000000000000000000000000815260040161050490611796565b60405180910390fd5b600080838154811061051b57fe5b9060005260206000209060060201600501600083815260200190815260200160002060010160146101000a81548160ff0219169083600181111561055b57fe5b02179055505050565b606080600080600080600080905060008090505b6000898154811061058557fe5b90600052602060002090600602016004015481101561060d576001808111156105aa57fe5b60008a815481106105b757fe5b9060005260206000209060060201600501600083815260200190815260200160002060010160149054906101000a900460ff1660018111156105f557fe5b141561060057600191505b8080600101915050610578565b506000888154811061061b57fe5b90600052602060002090600602016000016000898154811061063957fe5b9060005260206000209060060201600101898360008c8154811061065957fe5b90600052602060002090600602016004015460008d8154811061067857fe5b906000526020600020906006020160020160009054906101000a900473ffffffffffffffffffffffffffffffffffffffff16858054600181600116156101000203166002900480601f01602080910402602001604051908101604052809291908181526020018280546001816001161561010002031660029004801561073f5780601f106107145761010080835404028352916020019161073f565b820191906000526020600020905b81548152906001019060200180831161072257829003601f168201915b50505050509550848054600181600116156101000203166002900480601f0160208091040260200160405190810160405280929190818152602001828054600181600116156101000203166002900480156107db5780601f106107b0576101008083540402835291602001916107db565b820191906000526020600020905b8154815290600101906020018083116107be57829003601f168201915b505050505094509650965096509650965096505091939550919395565b606060008060008060606000888154811061080f57fe5b906000526020600020906006020160050160008881526020019081526020016000206000016000898154811061084157fe5b9060005260206000209060060201600501600089815260200190815260200160002060010160009054906101000a900473ffffffffffffffffffffffffffffffffffffffff166000600181111561089457fe5b60008b815481106108a157fe5b906000526020600020906006020160050160008b815260200190815260200160002060010160149054906101000a900460ff1660018111156108df57fe5b1460008b815481106108ed57fe5b906000526020600020906006020160050160008b81526020019081526020016000206002015460008c8154811061092057fe5b906000526020600020906006020160050160008c81526020019081526020016000206004015460008d8154811061095357fe5b906000526020600020906006020160050160008d8152602001908152602001600020600301858054600181600116156101000203166002900480601f016020809104026020016040519081016040528092919081815260200182805460018160011615610100020316600290048015610a0d5780601f106109e257610100808354040283529160200191610a0d565b820191906000526020600020905b8154815290600101906020018083116109f057829003601f168201915b5050505050955080805480602002602001604051908101604052809291908181526020018280548015610a9557602002820191906000526020600020905b8160009054906101000a900473ffffffffffffffffffffffffffffffffffffffff1673ffffffffffffffffffffffffffffffffffffffff1681526020019060010190808311610a4b575b505050505090509550955095509550955095509295509295509295565b600060606000808481548110610ac457fe5b90600052602060002090600602016004015490506040518060c001604052808681526020013373ffffffffffffffffffffffffffffffffffffffff168152602001600180811115610b1157fe5b8152602001600081526020018381526020018281525060008581548110610b3457fe5b906000526020600020906006020160050160008381526020019081526020016000206000820151816000019080519060200190610b72929190611056565b5060208201518160010160006101000a81548173ffffffffffffffffffffffffffffffffffffffff021916908373ffffffffffffffffffffffffffffffffffffffff16021790555060408201518160010160146101000a81548160ff02191690836001811115610bde57fe5b0217905550606082015181600201556080820151816003019080519060200190610c099291906110d6565b5060a0820151816004015590505060008481548110610c2457fe5b90600052602060002090600602016004016000815480929190600101919050555060019250505092915050565b60008080549050905060006040518060a001604052808581526020018481526020013373ffffffffffffffffffffffffffffffffffffffff1681526020018381526020016000815250908060018154018082558091505090600182039060005260206000209060060201600090919290919091506000820151816000019080519060200190610ce1929190611056565b506020820151816001019080519060200190610cfe929190611056565b5060408201518160020160006101000a81548173ffffffffffffffffffffffffffffffffffffffff021916908373ffffffffffffffffffffffffffffffffffffffff1602179055506060820151816003015560808201518160040155505050336002600083815260200190815260200160002060006101000a81548173ffffffffffffffffffffffffffffffffffffffff021916908373ffffffffffffffffffffffffffffffffffffffff160217905550600160003373ffffffffffffffffffffffffffffffffffffffff1673ffffffffffffffffffffffffffffffffffffffff168152602001908152602001600020600081548092919060010191905055503373ffffffffffffffffffffffffffffffffffffffff167fe496cbd014e4a7c5ba79bb31c56d6494e13a21c9fe6959dc3c0f2e95317ec52d8383604051610e46929190611746565b60405180910390a2505050565b606080600160008473ffffffffffffffffffffffffffffffffffffffff1673ffffffffffffffffffffffffffffffffffffffff16815260200190815260200160002054604051908082528060200260200182016040528015610ec45781602001602082028038833980820191505090505b509050600080905060008090505b600080549050811015610f75578473ffffffffffffffffffffffffffffffffffffffff166002600083815260200190815260200160002060009054906101000a900473ffffffffffffffffffffffffffffffffffffffff1673ffffffffffffffffffffffffffffffffffffffff161415610f685780838381518110610f5357fe5b60200260200101818152505081806001019250505b8080600101915050610ed2565b508192505050919050565b60006002600083815260200190815260200160002060009054906101000a900473ffffffffffffffffffffffffffffffffffffffff169050919050565b606080600080549050604051908082528060200260200182016040528015610ff45781602001602082028038833980820191505090505b50905060008090505b60008054905081101561104e576000818154811061101757fe5b90600052602060002090600602016003015482828151811061103557fe5b6020026020010181815250508080600101915050610ffd565b508091505090565b828054600181600116156101000203166002900490600052602060002090601f016020900481019282601f1061109757805160ff19168380011785556110c5565b828001600101855582156110c5579182015b828111156110c45782518255916020019190600101906110a9565b5b5090506110d29190611160565b5090565b82805482825590600052602060002090810192821561114f579160200282015b8281111561114e5782518260006101000a81548173ffffffffffffffffffffffffffffffffffffffff021916908373ffffffffffffffffffffffffffffffffffffffff160217905550916020019190600101906110f6565b5b50905061115c9190611185565b5090565b61118291905b8082111561117e576000816000905550600101611166565b5090565b90565b6111c591905b808211156111c157600081816101000a81549073ffffffffffffffffffffffffffffffffffffffff02191690555060010161118b565b5090565b90565b6000813590506111d781611958565b92915050565b600082601f8301126111ee57600080fd5b81356112016111fc82611803565b6117d6565b9150808252602083016020830185838301111561121d57600080fd5b611228838284611905565b50505092915050565b6000813590506112408161196f565b92915050565b60006020828403121561125857600080fd5b6000611266848285016111c8565b91505092915050565b6000806040838503121561128257600080fd5b600083013567ffffffffffffffff81111561129c57600080fd5b6112a8858286016111dd565b925050602083013567ffffffffffffffff8111156112c557600080fd5b6112d1858286016111dd565b9150509250929050565b600080604083850312156112ee57600080fd5b600083013567ffffffffffffffff81111561130857600080fd5b611314858286016111dd565b925050602061132585828601611231565b9150509250929050565b60006020828403121561134157600080fd5b600061134f84828501611231565b91505092915050565b6000806040838503121561136b57600080fd5b600061137985828601611231565b925050602061138a85828601611231565b9150509250929050565b60006113a083836113c4565b60208301905092915050565b60006113b883836115f2565b60208301905092915050565b6113cd816118bd565b82525050565b6113dc816118bd565b82525050565b60006113ed8261184f565b6113f7818561188a565b93506114028361182f565b8060005b8381101561143357815161141a8882611394565b975061142583611870565b925050600181019050611406565b5085935050505092915050565b600061144b8261185a565b611455818561189b565b93506114608361183f565b8060005b8381101561149157815161147888826113ac565b97506114838361187d565b925050600181019050611464565b5085935050505092915050565b6114a7816118cf565b82525050565b60006114b882611865565b6114c281856118ac565b93506114d2818560208601611914565b6114db81611947565b840191505092915050565b60006114f3601e836118ac565b91507f596f752063616e2774206c696b6520796f7572206f776e20616e7377657200006000830152602082019050919050565b60006115336022836118ac565b91507f596f752063616e27742076616c696461746520796f7572206f776e20616e737760008301527f65720000000000000000000000000000000000000000000000000000000000006020830152604082019050919050565b60006115996026836118ac565b91507f596f752063616e27742076616c6964617465206966206973206e6f7420796f7560008301527f7220706f737400000000000000000000000000000000000000000000000000006020830152604082019050919050565b6115fb816118fb565b82525050565b61160a816118fb565b82525050565b600060208201905061162560008301846113d3565b92915050565b600060208201905081810360008301526116458184611440565b905092915050565b6000602082019050611662600083018461149e565b92915050565b600060c082019050818103600083015261168281896114ad565b905061169160208301886113d3565b61169e604083018761149e565b6116ab6060830186611601565b6116b86080830185611601565b81810360a08301526116ca81846113e2565b9050979650505050505050565b600060c08201905081810360008301526116f181896114ad565b9050818103602083015261170581886114ad565b90506117146040830187611601565b611721606083018661149e565b61172e6080830185611601565b61173b60a08301846113d3565b979650505050505050565b6000604082019050818103600083015261176081856114ad565b905061176f6020830184611601565b9392505050565b6000602082019050818103600083015261178f816114e6565b9050919050565b600060208201905081810360008301526117af81611526565b9050919050565b600060208201905081810360008301526117cf8161158c565b9050919050565b6000604051905081810181811067ffffffffffffffff821117156117f957600080fd5b8060405250919050565b600067ffffffffffffffff82111561181a57600080fd5b601f19601f8301169050602081019050919050565b6000819050602082019050919050565b6000819050602082019050919050565b600081519050919050565b600081519050919050565b600081519050919050565b6000602082019050919050565b6000602082019050919050565b600082825260208201905092915050565b600082825260208201905092915050565b600082825260208201905092915050565b60006118c8826118db565b9050919050565b60008115159050919050565b600073ffffffffffffffffffffffffffffffffffffffff82169050919050565b6000819050919050565b82818337600083830152505050565b60005b83811015611932578082015181840152602081019050611917565b83811115611941576000848401525b50505050565b6000601f19601f8301169050919050565b611961816118bd565b811461196c57600080fd5b50565b611978816118fb565b811461198357600080fd5b5056fea365627a7a7231582011dc8e9767b0c4346657c2862db336956d2576f1ffd5eb22c98933a6e42719ea6c6578706572696d656e74616cf564736f6c63430005100040",
  "source": "pragma solidity >=0.4.25 <0.7.0;\npragma experimental ABIEncoderV2;\nimport \"./User.sol\";\n\ncontract PostFactory {\n\n    struct Reponse{\n        string text;\n        address author;\n        State state;\n        uint nblike;\n        address[] like;\n        uint id;\n    }\n\n    struct Post{\n        string titre;\n        string contenue;\n        address author;\n        uint id;\n        uint nbAnswer;\n        mapping(uint => Reponse) responses;\n    }\n\n    enum State {\n        val,\n        nonVal\n    }\n\n    event validateAnswerEvent(\n        address indexed _from,\n        uint indexed _id,\n        address _author\n    );\n\n    event getAllres(\n        Reponse[] reponse\n    );\n\n    Post[] posts;\n\tmapping (address => uint) ownerToPostMapping;\n\n\tmapping (uint => address) postToOwnerMapping;\n\nevent Posted(\n    address indexed userAdd,\n    string text,\n    uint idPost);\n\nevent answerPosted(\n    Reponse rep\n    );\n\nevent getAllpostsEvent(uint[] allpostsID);\nevent likeAnswerEvent(uint idpost, uint idAnswer);\n\n    function newPost(string memory _titre,string memory _text) public {\n        uint id = posts.length;\n        posts.push(Post(_titre,_text,msg.sender,id,0));\n        postToOwnerMapping[id] = msg.sender;\n        ownerToPostMapping[msg.sender]++;\n        emit Posted(msg.sender,_text,id);\n    }\n\n    function getOwnerByPost(uint id) public view returns (address){\n        return postToOwnerMapping[id];\n    }\n\n\n    function getPostsByOwner(address _owner) public view returns (uint[] memory){\n        uint[] memory result = new uint[](ownerToPostMapping[_owner]);\n        uint counter = 0;\n        for (uint i = 0; i < posts.length; i++) {\n            if (postToOwnerMapping[i] == _owner) {\n                result[counter] = i;\n                counter++;\n            }\n        }\n        return result;\n    }\n\n    function getAllPost() public view returns(uint[] memory){\n        uint[] memory resu = new uint[](posts.length);\n        for(uint i = 0; i < posts.length; i++){\n            resu[i] = posts[i].id;\n        }\n        return resu;\n    }\n\n    function newAnswer(string memory _text, uint _postid) public returns (bool){\n        address[] memory like;\n        uint id = posts[_postid].nbAnswer;\n        posts[_postid].responses[id] = (Reponse(_text,msg.sender,State.nonVal,0,like,id));\n        posts[_postid].nbAnswer++;\n        return true;\n    }\n    function getPostById(uint _postid) public view returns (string memory titre,string memory contenue,uint id,\n     bool validate, uint nbAnswer, address author){\n        bool responseVal = false;\n        for(uint i = 0; i<posts[_postid].nbAnswer;i++) {\n            if(posts[_postid].responses[i].state==State.nonVal){\n                responseVal = true;\n            }\n        }\n        return (posts[_postid].titre,posts[_postid].contenue,_postid,responseVal,posts[_postid].nbAnswer,posts[_postid].author);\n    }\n        mapping(uint => Reponse) responses;\n\n    function getAnswerByPost(uint _post, uint _id) public view returns (string memory text,address author,bool state,uint nblike,uint id,address[] memory likeur){\n        return (posts[_post].responses[_id].text, posts[_post].responses[_id].author,\n         posts[_post].responses[_id].state==State.val,posts[_post].responses[_id].nblike,posts[_post].responses[_id].id,posts[_post].responses[_id].like);\n    }\n\n    function likeAnswer(uint _post, uint _id) public {\n        require(msg.sender!=posts[_post].responses[_id].author, \"You can't like your own answer\");\n        posts[_post].responses[_id].like.push(msg.sender);\n        posts[_post].responses[_id].nblike++;\n    }\n\n    function validateAnswer(uint _post, uint _id) public{\n        require(msg.sender==posts[_post].author, \"You can't validate if is not your post\");\n        require(msg.sender==posts[_post].responses[_id].author, \"You can't validate your own answer\");\n        posts[_post].responses[_id].state = State.val;\n    }\n}",
  "sourcePath": "D:\\Users\\boche\\Documents\\Professionnel\\Cours\\Mastere 2\\Blockchain\\StackoverCoin\\contracts\\Post.sol",
  "compiler": {
    "name": "solc",
    "version": "0.5.16+commit.9c3226ce.Emscripten.clang"
  },
  "schemaVersion": "3.0.23",
  "updatedAt": "2020-03-18T22:02:37.939Z",
  "networkType": "ethereum",
  "devdoc": {
    "methods": {}
  },
  "userdoc": {
    "methods": {}
  }
}