{
  "contractName": "UserCrypto",
  "abi": [
    {
      "anonymous": false,
      "inputs": [
        {
          "indexed": true,
          "internalType": "address",
          "name": "userAdd",
          "type": "address"
        },
        {
          "indexed": false,
          "internalType": "string",
          "name": "userName",
          "type": "string"
        },
        {
          "indexed": false,
          "internalType": "string",
          "name": "userEmail",
          "type": "string"
        },
        {
          "indexed": false,
          "internalType": "uint256",
          "name": "userRegId",
          "type": "uint256"
        }
      ],
      "name": "Loginemit",
      "type": "event"
    },
    {
      "anonymous": false,
      "inputs": [
        {
          "indexed": true,
          "internalType": "address",
          "name": "userAdd",
          "type": "address"
        },
        {
          "indexed": false,
          "internalType": "string",
          "name": "userName",
          "type": "string"
        },
        {
          "indexed": false,
          "internalType": "string",
          "name": "userEmail",
          "type": "string"
        },
        {
          "indexed": false,
          "internalType": "uint256",
          "name": "userRegId",
          "type": "uint256"
        }
      ],
      "name": "Registered",
      "type": "event"
    },
    {
      "constant": false,
      "inputs": [
        {
          "internalType": "string",
          "name": "_pseudo",
          "type": "string"
        },
        {
          "internalType": "string",
          "name": "_email",
          "type": "string"
        },
        {
          "internalType": "string",
          "name": "_password",
          "type": "string"
        },
        {
          "internalType": "string",
          "name": "avatar",
          "type": "string"
        }
      ],
      "name": "register",
      "outputs": [
        {
          "internalType": "bool",
          "name": "",
          "type": "bool"
        }
      ],
      "payable": false,
      "stateMutability": "nonpayable",
      "type": "function"
    },
    {
      "constant": true,
      "inputs": [
        {
          "internalType": "string",
          "name": "_pseudo",
          "type": "string"
        },
        {
          "internalType": "string",
          "name": "_password",
          "type": "string"
        }
      ],
      "name": "login",
      "outputs": [
        {
          "internalType": "address",
          "name": "",
          "type": "address"
        }
      ],
      "payable": false,
      "stateMutability": "view",
      "type": "function"
    },
    {
      "constant": false,
      "inputs": [
        {
          "internalType": "string",
          "name": "_password",
          "type": "string"
        }
      ],
      "name": "loginOnChain",
      "outputs": [
        {
          "internalType": "address",
          "name": "",
          "type": "address"
        }
      ],
      "payable": false,
      "stateMutability": "nonpayable",
      "type": "function"
    },
    {
      "constant": true,
      "inputs": [
        {
          "internalType": "address",
          "name": "add",
          "type": "address"
        }
      ],
      "name": "getDetails",
      "outputs": [
        {
          "internalType": "string",
          "name": "pseudo",
          "type": "string"
        },
        {
          "internalType": "string",
          "name": "email",
          "type": "string"
        },
        {
          "internalType": "uint256",
          "name": "regId",
          "type": "uint256"
        },
        {
          "internalType": "string",
          "name": "avatar",
          "type": "string"
        }
      ],
      "payable": false,
      "stateMutability": "view",
      "type": "function"
    }
  ],
  "bytecode": "0x608060405234801561001057600080fd5b506118fc806100206000396000f3fe608060405234801561001057600080fd5b506004361061004c5760003560e01c80630e24c52c1461005157806330289c61146102e9578063312c6f6e1461048557806358467dbc14610580575b600080fd5b6102cf6004803603608081101561006757600080fd5b810190808035906020019064010000000081111561008457600080fd5b82018360208201111561009657600080fd5b803590602001918460018302840111640100000000831117156100b857600080fd5b91908080601f016020809104026020016040519081016040528093929190818152602001838380828437600081840152601f19601f8201169050808301925050505050505091929192908035906020019064010000000081111561011b57600080fd5b82018360208201111561012d57600080fd5b8035906020019184600183028401116401000000008311171561014f57600080fd5b91908080601f016020809104026020016040519081016040528093929190818152602001838380828437600081840152601f19601f820116905080830192505050505050509192919290803590602001906401000000008111156101b257600080fd5b8201836020820111156101c457600080fd5b803590602001918460018302840111640100000000831117156101e657600080fd5b91908080601f016020809104026020016040519081016040528093929190818152602001838380828437600081840152601f19601f8201169050808301925050505050505091929192908035906020019064010000000081111561024957600080fd5b82018360208201111561025b57600080fd5b8035906020019184600183028401116401000000008311171561027d57600080fd5b91908080601f016020809104026020016040519081016040528093929190818152602001838380828437600081840152601f19601f820116905080830192505050505050509192919290505050610712565b604051808215151515815260200191505060405180910390f35b61032b600480360360208110156102ff57600080fd5b81019080803573ffffffffffffffffffffffffffffffffffffffff169060200190929190505050610c3d565b60405180806020018060200185815260200180602001848103845288818151815260200191508051906020019080838360005b8381101561037957808201518184015260208101905061035e565b50505050905090810190601f1680156103a65780820380516001836020036101000a031916815260200191505b50848103835287818151815260200191508051906020019080838360005b838110156103df5780820151818401526020810190506103c4565b50505050905090810190601f16801561040c5780820380516001836020036101000a031916815260200191505b50848103825285818151815260200191508051906020019080838360005b8381101561044557808201518184015260208101905061042a565b50505050905090810190601f1680156104725780820380516001836020036101000a031916815260200191505b5097505050505050505060405180910390f35b61053e6004803603602081101561049b57600080fd5b81019080803590602001906401000000008111156104b857600080fd5b8201836020820111156104ca57600080fd5b803590602001918460018302840111640100000000831117156104ec57600080fd5b91908080601f016020809104026020016040519081016040528093929190818152602001838380828437600081840152601f19601f820116905080830192505050505050509192919290505050610fed565b604051808273ffffffffffffffffffffffffffffffffffffffff1673ffffffffffffffffffffffffffffffffffffffff16815260200191505060405180910390f35b6106d06004803603604081101561059657600080fd5b81019080803590602001906401000000008111156105b357600080fd5b8201836020820111156105c557600080fd5b803590602001918460018302840111640100000000831117156105e757600080fd5b91908080601f016020809104026020016040519081016040528093929190818152602001838380828437600081840152601f19601f8201169050808301925050505050505091929192908035906020019064010000000081111561064a57600080fd5b82018360208201111561065c57600080fd5b8035906020019184600183028401116401000000008311171561067e57600080fd5b91908080601f016020809104026020016040519081016040528093929190818152602001838380828437600081840152601f19601f820116905080830192505050505050509192919290505050611402565b604051808273ffffffffffffffffffffffffffffffffffffffff1673ffffffffffffffffffffffffffffffffffffffff16815260200191505060405180910390f35b60008060003373ffffffffffffffffffffffffffffffffffffffff1673ffffffffffffffffffffffffffffffffffffffff16815260200190815260200160002060040160009054906101000a900460ff16156107d6576040517f08c379a00000000000000000000000000000000000000000000000000000000081526004018080602001828103825260128152602001807f616c72656164792072656769737465726564000000000000000000000000000081525060200191505060405180910390fd5b838073__strings_______________________________6388d8da5f90916000803373ffffffffffffffffffffffffffffffffffffffff1673ffffffffffffffffffffffffffffffffffffffff1681526020019081526020016000206001016040518363ffffffff1660e01b8152600401808060200180602001838103835285818151815260200191508051906020019080838360005b8381101561088857808201518184015260208101905061086d565b50505050905090810190601f1680156108b55780820380516001836020036101000a031916815260200191505b508381038252848181546001816001161561010002031660029004815260200191508054600181600116156101000203166002900480156109375780601f1061090c57610100808354040283529160200191610937565b820191906000526020600020905b81548152906001019060200180831161091a57829003601f168201915b505094505050505060206040518083038186803b15801561095757600080fd5b505af415801561096b573d6000803e3d6000fd5b505050506040513d602081101561098157600080fd5b810190808051906020019092919050505015610a05576040517f08c379a00000000000000000000000000000000000000000000000000000000081526004018080602001828103825260188152602001807f656d61696c20616c72656164792072656769737465726564000000000000000081525060200191505060405180910390fd5b6000846040516020018082805190602001908083835b60208310610a3e5780518252602082019150602081019050602083039250610a1b565b6001836020036101000a0380198251168184511680821785525050505050509050019150506040516020818303038152906040528051906020012090506040518060c0016040528088815260200187815260200182815260200160036000815480929190600101919050558152602001600115158152602001858152506000803373ffffffffffffffffffffffffffffffffffffffff1673ffffffffffffffffffffffffffffffffffffffff1681526020019081526020016000206000820151816000019080519060200190610b15929190611822565b506020820151816001019080519060200190610b32929190611822565b50604082015181600201556060820151816003015560808201518160040160006101000a81548160ff02191690831515021790555060a0820151816005019080519060200190610b83929190611822565b50905050336001876040518082805190602001908083835b60208310610bbe5780518252602082019150602081019050602083039250610b9b565b6001836020036101000a038019825116818451168082178552505050505050905001915050908152602001604051809103902060006101000a81548173ffffffffffffffffffffffffffffffffffffffff021916908373ffffffffffffffffffffffffffffffffffffffff160217905550600192505050949350505050565b606080600060606000808673ffffffffffffffffffffffffffffffffffffffff1673ffffffffffffffffffffffffffffffffffffffff16815260200190815260200160002060040160009054906101000a900460ff16610d05576040517f08c379a000000000000000000000000000000000000000000000000000000000815260040180806020018281038252600e8152602001807f6e6f74207265676973746572656400000000000000000000000000000000000081525060200191505060405180910390fd5b6000808673ffffffffffffffffffffffffffffffffffffffff1673ffffffffffffffffffffffffffffffffffffffff1681526020019081526020016000206000016000808773ffffffffffffffffffffffffffffffffffffffff1673ffffffffffffffffffffffffffffffffffffffff1681526020019081526020016000206001016000808873ffffffffffffffffffffffffffffffffffffffff1673ffffffffffffffffffffffffffffffffffffffff168152602001908152602001600020600301546000808973ffffffffffffffffffffffffffffffffffffffff1673ffffffffffffffffffffffffffffffffffffffff168152602001908152602001600020600501838054600181600116156101000203166002900480601f016020809104026020016040519081016040528092919081815260200182805460018160011615610100020316600290048015610e9f5780601f10610e7457610100808354040283529160200191610e9f565b820191906000526020600020905b815481529060010190602001808311610e8257829003601f168201915b50505050509350828054600181600116156101000203166002900480601f016020809104026020016040519081016040528092919081815260200182805460018160011615610100020316600290048015610f3b5780601f10610f1057610100808354040283529160200191610f3b565b820191906000526020600020905b815481529060010190602001808311610f1e57829003601f168201915b50505050509250808054600181600116156101000203166002900480601f016020809104026020016040519081016040528092919081815260200182805460018160011615610100020316600290048015610fd75780601f10610fac57610100808354040283529160200191610fd7565b820191906000526020600020905b815481529060010190602001808311610fba57829003601f168201915b5050505050905093509350935093509193509193565b60008060003373ffffffffffffffffffffffffffffffffffffffff1673ffffffffffffffffffffffffffffffffffffffff16815260200190815260200160002060040160009054906101000a900460ff166110b0576040517f08c379a000000000000000000000000000000000000000000000000000000000815260040180806020018281038252601e8152602001807f796f75722061646472657373206973206e6f742072656769737465726564000081525060200191505060405180910390fd5b6000803373ffffffffffffffffffffffffffffffffffffffff1673ffffffffffffffffffffffffffffffffffffffff16815260200190815260200160002060020154826040516020018082805190602001908083835b602083106111295780518252602082019150602081019050602083039250611106565b6001836020036101000a03801982511681845116808217855250505050505090500191505060405160208183030381529060405280519060200120146111d7576040517f08c379a00000000000000000000000000000000000000000000000000000000081526004018080602001828103825260128152602001807f496e636f72726563742070617373776f7264000000000000000000000000000081525060200191505060405180910390fd5b3373ffffffffffffffffffffffffffffffffffffffff167f4893551caa45072c306ac02879ae36334c55fd14c38d810933ce94d63d09674c6000803373ffffffffffffffffffffffffffffffffffffffff1673ffffffffffffffffffffffffffffffffffffffff1681526020019081526020016000206000016000803373ffffffffffffffffffffffffffffffffffffffff1673ffffffffffffffffffffffffffffffffffffffff1681526020019081526020016000206001016000803373ffffffffffffffffffffffffffffffffffffffff1673ffffffffffffffffffffffffffffffffffffffff168152602001908152602001600020600301546040518080602001806020018481526020018381038352868181546001816001161561010002031660029004815260200191508054600181600116156101000203166002900480156113665780601f1061133b57610100808354040283529160200191611366565b820191906000526020600020905b81548152906001019060200180831161134957829003601f168201915b50508381038252858181546001816001161561010002031660029004815260200191508054600181600116156101000203166002900480156113e95780601f106113be576101008083540402835291602001916113e9565b820191906000526020600020905b8154815290600101906020018083116113cc57829003601f168201915b50509550505050505060405180910390a2339050919050565b60008060003373ffffffffffffffffffffffffffffffffffffffff1673ffffffffffffffffffffffffffffffffffffffff16815260200190815260200160002060040160009054906101000a900460ff166114c5576040517f08c379a000000000000000000000000000000000000000000000000000000000815260040180806020018281038252601e8152602001807f796f75722061646472657373206973206e6f742072656769737465726564000081525060200191505060405180910390fd5b6000803373ffffffffffffffffffffffffffffffffffffffff1673ffffffffffffffffffffffffffffffffffffffff16815260200190815260200160002060020154826040516020018082805190602001908083835b6020831061153e578051825260208201915060208101905060208303925061151b565b6001836020036101000a03801982511681845116808217855250505050505090500191505060405160208183030381529060405280519060200120146115ec576040517f08c379a00000000000000000000000000000000000000000000000000000000081526004018080602001828103825260128152602001807f496e636f72726563742070617373776f7264000000000000000000000000000081525060200191505060405180910390fd5b8273__strings_______________________________6388d8da5f90916000803373ffffffffffffffffffffffffffffffffffffffff1673ffffffffffffffffffffffffffffffffffffffff1681526020019081526020016000206000016040518363ffffffff1660e01b8152600401808060200180602001838103835285818151815260200191508051906020019080838360005b8381101561169d578082015181840152602081019050611682565b50505050905090810190601f1680156116ca5780820380516001836020036101000a031916815260200191505b5083810382528481815460018160011615610100020316600290048152602001915080546001816001161561010002031660029004801561174c5780601f106117215761010080835404028352916020019161174c565b820191906000526020600020905b81548152906001019060200180831161172f57829003601f168201915b505094505050505060206040518083038186803b15801561176c57600080fd5b505af4158015611780573d6000803e3d6000fd5b505050506040513d602081101561179657600080fd5b8101908080519060200190929190505050611819576040517f08c379a000000000000000000000000000000000000000000000000000000000815260040180806020018281038252600f8152602001807f496e636f727265637420656d61696c000000000000000000000000000000000081525060200191505060405180910390fd5b33905092915050565b828054600181600116156101000203166002900490600052602060002090601f016020900481019282601f1061186357805160ff1916838001178555611891565b82800160010185558215611891579182015b82811115611890578251825591602001919060010190611875565b5b50905061189e91906118a2565b5090565b6118c491905b808211156118c05760008160009055506001016118a8565b5090565b9056fea265627a7a72315820ae57f4d25df1b63ada6b31e687705c0a236740c12c3ffb2176aa7fcecff120d064736f6c63430005100032",
  "source": "pragma solidity >=0.4.25 <0.7.0;\r\n\r\nimport \"./librairy/strings.sol\";\r\n\r\ncontract UserCrypto {\r\n    using strings for *;\r\n\r\n    struct User{\r\n        string pseudo;\r\n        string email;\r\n        bytes32 password;\r\n        uint regId;\r\n        bool registered;\r\n        string avatar;\r\n    }\r\n\r\n    mapping (address => User) private data;\r\n    mapping (string => address) private emailXadd;\r\n    mapping (string => address) private nameXadd;\r\n    uint id;\r\n\r\n\r\n    event Registered(\r\n    address indexed userAdd,\r\n    string userName,\r\n    string  userEmail,\r\n    uint userRegId);\r\n\r\n    event Loginemit(\r\n    address indexed userAdd,\r\n    string userName,\r\n    string  userEmail,\r\n    uint userRegId);\r\n\r\n    modifier alreadyRegistered() {\r\n        require(!data[msg.sender].registered,\"already registered\");\r\n        _;\r\n    }\r\n    modifier emailAlreadyRegistered(string memory _email) {\r\n        require(!_email.equals(data[msg.sender].email),\"email already registered\");\r\n        _;\r\n    }\r\n    function register(string memory _pseudo, string memory _email,string memory _password, string memory avatar) public alreadyRegistered\r\n    emailAlreadyRegistered(_email)\r\n    returns(bool){\r\n        bytes32 password = keccak256(abi.encodePacked(_password));\r\n        data[msg.sender] = User(_pseudo,_email,password,id++,true,avatar);\r\n        emailXadd[_email] = msg.sender;\r\n        return true;\r\n    }\r\n\r\n    function login(string memory _pseudo,string memory _password) public view returns (address){\r\n        require(data[msg.sender].registered,\"your address is not registered\");\r\n        require(keccak256(abi.encodePacked(_password)) == data[msg.sender].password,\"Incorrect password\");\r\n        require(_pseudo.equals(data[msg.sender].pseudo),\"Incorrect email\");\r\n        return (msg.sender);\r\n    }\r\n    \r\n    function loginOnChain(string memory _password) public returns (address){\r\n        require(data[msg.sender].registered,\"your address is not registered\");\r\n        require(keccak256(abi.encodePacked(_password)) == data[msg.sender].password,\"Incorrect password\");\r\n        emit Loginemit(msg.sender,data[msg.sender].pseudo,data[msg.sender].email,data[msg.sender].regId);\r\n        return (msg.sender);\r\n    }\r\n    \r\n    function getDetails(address add) public view returns(string memory pseudo, string memory email, uint regId, string memory avatar){\r\n        require(data[add].registered,\"not registered\");\r\n        return (\r\n        data[add].pseudo,\r\n        data[add].email,\r\n        data[add].regId,\r\n        data[add].avatar);\r\n    }\r\n\r\n    \r\n}\r\n",
  "sourcePath": "D:\\Users\\boche\\Documents\\Professionnel\\Cours\\Mastere 2\\Blockchain\\StackoverCoin\\contracts\\User.sol",
  "compiler": {
    "name": "solc",
    "version": "0.5.16+commit.9c3226ce.Emscripten.clang"
  },
  "schemaVersion": "3.0.23",
  "updatedAt": "2020-03-18T22:02:37.972Z",
  "networkType": "ethereum",
  "devdoc": {
    "methods": {}
  },
  "userdoc": {
    "methods": {}
  }
}